:102578002B5F2B484C4B4A204341522B5F2B005476
:102588007970653A2052535F4F4E452020005373AF
:1025980070643A2078787820636D2F7300416E67F5
:1025A8006C3A2078787820202020200047737064C7
:1025B8003A2078787820636D2F7300547970653AE3
:1025C8002025730052535F4F4E4520200052535F21
:1025D80054574F20200054545F54574F2020005424
:1025E800545F464F55522000545950452045525289
:1025F80000537370643A2078787878636D2F73008D
:10260800416E676C3A2078787878202020007365CE
:102618006E6420207375636365737321200073658E
:0E2628006E6420206572726F722120202000E7
:102B48004F004C2020202020202020202020202042
:0B2B580020004100830042008C0000C0
:083365001230F6121C3680FB49
:1030F600120016122E0512337C122C401232951233
:1031060031AD7F967E001231F312332E7FFA7E00A8
:063116001231F30232D871
:0400160075BBFF2295
:102E05007F02122A92900084EEF0A3EFF0E4FF1205
:102E15002A92900086EEF0A3EFF07F03122A92909B
:102E25000088EEF0A3EFF07F01122A9290008AEE5F
:0A2E3500F0A3EFF0E490005BF02240
:102C4000122C87122E3F7BFF7A257978E4FDFF1244
:102C50002FF27BFF7A2579877D01E4FF122FF27B2B
:102C6000FF7A2579967D02E4FF122FF27BFF7A2509
:102C700079A57D03E4FF122FF27BFF7A2579B47DDD
:072C800004E4FF122FF22211
:0C332E00C2C77FF47E011231F3D2C72227
:101C36007B017A00795C122092786F7C007D017BB3
:101C4600017A00795C7E007F131206C87B017A0058
:101C5600796F122A2CEF7003021E5390005BE0701E
:101C660003021E5090009C74FFF0A37425F0A37429
:101C7600C3F090005CE0FFB401087BFF7A2579CCC5
:101C86008028EFB402087BFF7A2579D5801CEFB453
:101C960002087BFF7A2579DE8010EF7BFFB402060F
:101CA6007A2579E780047A2579F090009FEBF0A3F6
:101CB600EAF0A3E9F07B017A00794C120F627B010E
:101CC6007A00794C7D01E4FF122FF290009C74FF9C
:101CD600F0A37425F0A374F9F07B017A00794C1215
:101CE6000F6290005DE0FEA3E0FFEE90005130E74A
:101CF60013742BF0C3E49F90005EF074049E900072
:101D06005DF08003742DF090005DE05403FAA3E0CB
:101D1600FB7C037DE8FFAE0212077AEF24309000C9
:101D260052F07C037DE8AF03AE0212077A7E007F95
:101D360064CFCDCFCECCCE12077AEF2430A3F0906D
:101D4600005DE05403FAA3E07C007D64FFAE02125E
:101D5600077A7E007F0ACFCDCFCECCCE12077AEFA0
:101D66002430900054F07C007D0AAF03AE021207C7
:101D76007AED2430A3F07B017A00794C7D02E4FFF2
:101D8600122FF290009C74FFF0A37426F0A374083F
:101D9600F07B017A00794C120F6290005FE0FEA39F
:101DA600E0FFEE90005130E715742BF0C3E49FFF7F
:101DB60074049E540390005FF0A3EFF08003742D2B
:101DC600F090005FE05403FAA3E0FB7C037DE8FF9C
:101DD600AE0212077AEF2430900052F07C037DE8C1
:101DE600AF03AE0212077A7E007F64CFCDCFCECC92
:101DF600CE12077AEF2430A3F090005FE05403FA86
:101E0600A3E07C007D64FFAE0212077A7E007F0AA3
:101E1600CFCDCFCECCCE12077AEF2430900054F03F
:101E26007C007D0AAF03AE0212077AED2430A3F0E0
:101E36007B017A00794C7D03E4FF122FF27BFF7A57
:101E46002679167D05E4FF122FF2B2B42290005BCC
:101E5600E0600D7BFF7A2679267D05E4FF122FF2DE
:021E6600D2B4F4
:011E68002257
:0B209200900099EBF0A3EAF0A3E9F046
:10209D007E007F137D00900099E0FBA3E0FAA3E0A2
:1020AD00F91209F8900099E0FBA3E0FAA3E0F974A6
:1020BD0001120734E4FF122A92900086E0FCA3E09F
:1020CD00FDC3EF9DFFEE9CFE900099E0FBA3E0FAAF
:1020DD00A3E0F9900001EE8FF01208147F03122A8D
:1020ED0092900088E0FCA3E0FDC3EF9DFFEE9CFE07
:1020FD00900099E0FBA3E0FAA3E0F9900003EE8FC6
:10210D00F0120814122CCA900099E0FBA3E0FAA378
:10211D00E0F9900007E48FF0120814122D0C9000D6
:10212D0099E0FBA3E0FAA3E0F9900009E48FF01227
:10213D000814122CCA900099E0FBA3E0FAA3E0F971
:10214D0090000BE48FF0120814122D0C900099E002
:10215D00FBA3E0FAA3E0F990000DE48FF012081450
:10216D00E4FF1219B8120378900099E0FBA3E0FA8E
:10217D00A3E0F990000FEE8FF01208147F021219F0
:10218D00B8120378900099E0FBA3E0FAA3E0F99070
:10219D000011EE8FF01208149000011207DCFF12EF
:1021AD0006EE2FFFE435F0FE9000031207DC2FFF43
:0B21BD00EE35F09000058FF0120814C2
:0121C80022F4
:101380000000000000000000002F00000000070027
:10139000070000147F147F1400242A7F2A120062A1
:1013A000640813230036495522500000050300004D
:1013B00000001C224100000041221C000014083ED5
:1013C00008140008083E0808000000A0600000089B
:1013D00008080808000060600000002010080402EF
:1013E000003E5149453E0000427F400000426151AD
:1013F0004946002141454B31001814127F10002747
:1014000045454539003C4A49493000017109050309
:1014100000364949493600064949291E000036363A
:10142000000000005636000000081422410000149D
:10143000141414140000412214080002015109067A
:1014400000324959513E007C1211127C007F4949FB
:101450004936003E41414122007F4141221C007F2C
:1014600049494941007F09090901003E4149497A3A
:10147000007F0808087F0000417F410000204041B4
:101480003F01007F08142241007F40404040007F20
:10149000020C027F007F0408107F003E4141413E64
:1014A000007F09090906003E4151215E007F0919AC
:1014B00029460046494949310001017F0101003FA9
:1014C0004040403F001F2040201F003F4038403F29
:1014D000006314081463000708700807006151498D
:1014E000454300007F41410000552A552A55000020
:1014F00041417F000004020102040040404040409E
:10150000000001020400002054545478007F484435
:10151000443800384444442000384444487F00386C
:101520005454541800087E0901020018A4A4A47C95
:10153000007F080404780000447D4000004080845F
:101540007D00007F102844000000417F4000007CA7
:1015500004180478007C08040478003844444438B3
:1015600000FC242424180018242418FC007C0804FF
:10157000040800485454542000043F444020003CD8
:101580004040207C001C2040201C003C4030403C5F
:10159000004428102844001CA0A0A07C00446454EF
:1015A0004C44141414141414112248C47B4A6A4A7B
:1015B0004AFA4200040200030202030A0A07020078
:1015C0000022AA2A2AEA2A2A2ABE000008090404BC
:1015D000020102040508080012D2FE5190122400F4
:1015E000FF80800001000F00000101010F000000DA
:1015F0008888FF4824E4243F24E4040000080F0006
:10160000080805020508080000FC949494FF9494CF
:1016100094FE04000001000000030404040406001A
:101620002021212121F92925233120000000000457
:10163000040700000000000018D654FF5456D400E0
:10164000FC00FF0000030007000203000404070081
:101650001008FC130804FF242424040000000700E1
:101660000000070101010100406252CA47E242DE68
:101670005050580004020104040700000102040055
:1016800004A424A424BF242424A6040002010007E7
:1016900004040504060003008444F52E401010FFE6
:1016A00010101000000007000404040704040400E4
:0E32E800E4FFFE0FBF00010EBE03F8BFE8F5C5
:0132F60022B5
:0E32F700E4FFFE0FBF00010EBE04F8BF74F529
:0133050022A5
:04326300AD07AC0601
:10326700E4FBFAC3EB9DEA9C500A1232F70BBB0052
:04327700010A80EFD9
:01327B002230
:102C8700C2A01232E8D2A0C2A11232E8D2A11232F7
:102C9700E8E4FD7F21122F98E4FD7FC8122F98E406
:102CA700FD7F06122F98E4FD7F13122F98E4FD7F16
:102CB70020122F98122E3FE4FD7F0C122F98C2A1ED
:032CC700D2C62250
:102E3F00E4FD7F0C122F98E4FD7F80122F98E49011
:102E4F000099F0A3F07D01E4FF122F9890009AE013
:102E5F0004F07006900099E004F0C390009AE0949B
:092E6F00F8900099E0940140DCA8
:012E78002237
:1032490090009CEFF0ED4440FFE4FD122F989000B0
:0A3259009CE04480FFE4FD022F9882
:052EEB0090009CEFF0D7
:102EF000E024E0F0E4A3F090009DE0FFC3940650CE
:102F00002090009CE075F006A42480F582E5F03462
:102F100013F583E5822F122F8C90009DE004F08042
:012F2000D6DA
:012F2100228D
:102FF200900099EBF0A3EAF0A3E9F01232499000B5
:1030020099E0FBA3E0FAA3E0F91206EEFF600F12CB
:0F3012002EEB90009AE475F0011207B080E022D7
:0D23DD00900126EBF0900124EFF0A3EDF04D
:1023EA00123249E490012AF0900127E0FF90012A75
:1023FA00E0C39F40030224B7E4A3F0900126E0FD66
:10240A0075F002A4FF90012BE0FCC39FE5F0648005
:10241A00F8748098506DEC6D702E90012AE0700669
:10242A00900124E0801A900129E0FF900126E02F14
:10243A00FF90012AE0FEEF8EF0A4FF900124E02F26
:10244A00FFA3E004FD12324990012AE0FF9001281F
:10245A00E02FFFE433FE9015A875F018EF1209A6D5
:10246A00EE75F018A42583F583C083C08290012BF2
:10247A00E0D082D0832582122F8C90012BE004F0C9
:10248A0002240590012AE004F0900129E0FF90015E
:10249A0026E02FFF90012AE0FEEF8EF0A4FF9001C4
:0D24AA0024E02FFFA3E0FD1232490223F2CF
:0124B7002202
:1024B80090010EEFF0A3EDF0A3EBF0A3EAF0A3E98F
:0124C800F023
:1024C900900114E0FF54077008EF131313541F8091
:1024D9000A900114E0131313541F04900119F0E436
:1024E900900117F0A3F0900119E0FFC3900118E0E3
:1024F9009F900117E09400507590010EE0FFA3E052
:10250900FD123249E4900115F0A3F0900113E0FFA8
:102519007E00900115E0FAA3E0FBC39FEA9E5037C5
:10252900A3E0FCA3E0FD120768EB2FFFEA3EFE9053
:102539000110E0FBA3E0FAA3E0F98F828E83120772
:1025490007FF7D01122F98900116E004F070BC90EE
:102559000115E004F080B490010FE004F090011837
:0E256900E004F07081900117E004F00224EF0E
:012577002241
:0C2F8C00F582E43583F583E493FF7D01BA
:102F9800C2A1ED7004C2A28002D2A2E4FEEF30E723
:102FA80004D2A38002C2A3C2A4EF25E0FFD2A40EDC
:062FB800EEB408E9D2A10D
:012FBE0022F0
:0B334600EF1FAC0670011E4C70F62259
:1031F300E4FDFCC3ED9FEC9E5015E4FBFA0BBB0012
:0F320300010ABA02F8BB58F50DBD00010C80E4BA
:013212002299
:0D331400000000000000000000000000228A
:09335C00D2B7D2B6D2B5D2B42228
:10311C00EF14601014601314601624037017ED2460
:10312C00FF92B422ED24FF92B522ED24FF92B62239
:06313C00ED24FF92B72212
:102BF300E4900142F0F0900142E0FFC364809484CA
:102C03005014E4FD12311C7FE87E031231F390016E
:102C130042E004F080E09001427403F0900142E04E
:102C2300FFD36480947F40147D0112311C7FE87EC2
:0C2C3300031231F3900142E014F080E045
:012C3F002272
:042B630041014300E9
:102F2200438901900000E0FEA3E0FBC374FF9BFF16
:102F320074FF9EFEE49400FDE49400FC78081209FC
:102F42001D8F8C900000A3E0FBC374FF9BFF8F8A50
:052F5200C28CC2A9229F
:0E330600438910758DB1758BDFC28EC2AB226C
:05000600D288C2A8220F
:05000E00D28AC2AA2203
:03000300023213B3
:10321300C0E0C083C082900000E004F0700690001C
:0B32230000E004F0D082D083D0E03245
:0300130002322E88
:10322E00C0E0C083C082900000E004F07006900001
:0B323E0000E004F0D082D083D0E0322A
:03000B000226E2E8
:1026E200C0E0C083C082C0D075D000C000C002C0AC
:0926F20003C004C005C006C007C6
:1026FB00900143E064017040F0900000E0FEA3E025
:10270B00FFC374209FFF744E9EFAC374FF9FFF7428
:10271B00FF9AFEE49400FDE49400FC780812091D76
:10272B008F8C900000A3E0FFC374209FFFC374FF46
:10273B009FFF8F8AB2B480339001437401F09000F5
:10274B0000E0FEA3E0FBC374FF9BFF74FF9EFEE45F
:10275B009400FDE49400FC780812091D8F8C900006
:0B276B0000A3E0FBC374FF9BFF8F8AFC
:10277600D007D006D005D004D003D002D000D0D0E8
:07278600D082D083D0E032C5
:102CCA00E490009CF030B00930B10630B20320C362
:102CDA002B7F147E001231F320B00690009C740101
:102CEA00F020B10690009C7402F020B20690009C7D
:102CFA007403F020C30690009C7404F090009CE0DA
:012D0A00FFC9
:012D0B0022A5
:102D0C00E490009CF030C10930C40630C50320C6E5
:102D1C002B7F147E001231F320C10690009C7401AD
:102D2C00F020C40690009C7402F020C50690009C14
:102D3C007403F020C60690009C7404F090009CE094
:012D4C00FF87
:012D4D002263
:102B670045011A011234567845011F01123456786F
:07337500C280C282D2812256
:0A314200EBF0A3EAF0A3E9F0C2816C
:10314C00E4FEEF339283EF25E0FFD282A284E433D6
:09315C004FFFC2820EEEB408E937
:013165002247
:0632AE00C2807D0F7F20AD
:1032B400C28112314CAC07AF0512314CD281AF043C
:0132C40022E7
:0C332100C28112314CE4FF12314CD28109
:01332D00227D
:0E2D4E007B017A01791A9000A17405F07F2AAA
:032D5C0090009E46
:102D5F00123142AD07E4FC9000A1E0FFECC39F509D
:102D6F001A90009EE0FBA3E475F0011207C6A9F0CC
:0F2D7F00FA1206EEFF12314C0C80DCD281AF0548
:012D8E002222
:102B9E00C280E4FD7FE11232B47B017A01791A9092
:102BAE0000A17405F07F30122D5C122D4E7D017F39
:102BBE00211232B47F221232B47D1A7F241232B423
:102BCE007D287F251232B47D077F261232B47D1305
:102BDE007F311232B47D0E7F201232B4D2807F64E8
:052BEE007E000231F33E
:0B2A2C00900099EBF0A3EAF0A3E9F0A2
:102A3700C280122D4EE4FD7FE11232B4900099E07E
:102A4700FBA3E0FAA3E0F99000A17413F07FA012B2
:102A57002D5C7D0E7F201232B4D2807F967E0012CD
:102A670031F37F07123321EF30E50EFD7F27123256
:102A7700B490009C7401F0800CAD077F271232B42C
:0A2A8700E490009CF090009CE0FF3A
:012A91002222
:032F570090013AAC
:102F5A00123142AD07E4FC90013DE0FFECC39F5003
:102F6A001CE4FF12314C90013AE0FBA3E0FAA3E023
:102F7A00F98C82758300EF1207460C80DAD281AF92
:012F8A000541
:012F8B002223
:0C333A001232AED2807F0A7E000231F316
:102D8F00E4900144F07F071233218F20300613C2E5
:102D9F008090013D7413F07F61122F57900144749E
:102DAF0001F0AD207F271232B41232AED2807F0AEB
:0A2DBF007E001231F3900144E0FFA2
:012DC90022E7
:102E7900C280E4FD7FE21232B4122D4E7D017F2122
:102E89001232B47F221232B47D287F251232B47DEA
:102E9900137F311232B47D077F261232B41232B059
:092EA900D2807F827E000231F329
:06337C00123375022B9EC6
:06338200123375022E79E2
:102A9200E490009CF0A3F004A807088002C333D896
:102AA200FCFE4292EE429175BCE0EF42BC7F647E36
:102AB20000123346E4F5BDF5BE43BC080000000039
:102AC20000E5BC30E4FB53BCE7AFBDEF75F004A4F6
:102AD200ADBE7C002DFEEC35F090009CF0A3CEF054
:0B2AE200E4F5BC90009CE0FEA3E0FFC8
:012AED0022C6
:0B335100C4BED3D0D3A6B4F0A3A100EB
:10302100D292123314D29312331412331412331472
:10303100123314123314C292123314123314123392
:0F30410014123314123314C293123314023314C3
:10316600C292123314D2931233141233141233143C
:10317600123314123314D29212331412331412333C
:0431860014023314E8
:05278D009000A4EFF034
:10279200E4A3F0A3F09000A5F09000A5E0FFC3949D
:1027A2000850359000A4E0FEA807088002C333D881
:1027B200FC30E704D2928002C292123314D29312F6
:1027C2003314123314123314123314123314C29307
:1027D2009000A5E004F080C1123314123314D29297
:1027E200123314123314D29312331412331430925C
:1027F2000E9000A6E0C394FA5005E004F080EF903A
:1028020000A6E0C394F84004C20A8002D20AE4900F
:0D28120000A6F0C293123314123314A20A70
:01281F002296
:102AEE00E49000A5F09000A4F0D292A3F01233145B
:102AFE00C2931233141233141233141233141233CA
:102B0E0014D2931233141233141233149000A4E01F
:102B1E00FF25E0F0309203E004F012331412331468
:102B2E009000A5E004F0E0C3940840C1C2931233B4
:092B3E00141233149000A4E0FF0E
:012B4700226B
:10305000200A04C2928002D2921233141233141244
:103060003314D29312331412331412331412331450
:0B307000123314C29312331402331405
:1028AC0090012CEFF0A3EDF0A3EBF0A3EAF0A3E979
:0128BC00F02B
:1028BD00E4900132F0D21312302190012CE0FF127E
:1028CD00278D921320130C7BFF7A3379511232C569
:1028DD007F002290012DE0FF12278D92132013030C
:1028ED007F0022E4900132F0900131E0FFA3E0C3BC
:1028FD009F502C90012EE0FBA3E0FAA3E0F9120605
:10290D00EEFF12278D92132013037F002290012FCB
:10291D00E475F0011207B0900132E004F080C912A5
:04292D0031667F018F
:012931002283
:0E29B400900133EFF0A3EBF0A3EAF0A3E9F0FB
:1029C200123021900133E0FF12278D92142014035C
:1029D2007F0022E4900138F0900137E014FFA3E079
:1029E200C39F5029122AEE900134E0FBA3E0FAA320
:1029F200E0F9EF120734C20A123050900135E47543
:102A0200F0011207B0900138E004F080CB122AEEF8
:102A1200900134E0FBA3E0FAA3E0F9EF120734D20D
:092A22000A1230501231667F01E6
:012A2B002288
:102B77005000083F80000000000000000000003FF8
:102B87008000005000180000000000000000000056
:062B970000000000000038
:10318A00900099EFF0A3EDF01230217FD012278D35
:10319A00900099E0FF12278D90009AE0FF12278D88
:0331AA0002316689
:052FBF009000A2EFF0FC
:102FC4001230217FD012278D9000A2E0FF12278DAE
:102FD4001230217FD112278D122AEE9000A3EFF038
:0D2FE400D20A1230501231669000A3E0FFB7
:012FF10022BD
:1031AD00E4FD7F6B12318A7D077F1912318A7D060E
:1031BD007F1A12318A7D107F1B12318A7D017F1C8F
:0331CD0002318A42
:05307B009000A0EFF041
:10308000E4A3F0FD122FBF9000A1EFF09000A0E0AC
:1030900004FF122FBFAD079000A1E0FE7C00E42DDD
:0430A000FFEC3EFE05
:0130A4002209
:0219B800AB077B
:1019BA0090009C12097500000000EB24FE700302DF
:1019CA001A7224FE7003021B0724046003021BA17F
:1019DA007F3B12307BAC06AD07EC12033F90009CB4
:1019EA001209697F007EB87D087C4790009CE0F868
:1019FA00A3E0F9A3E0FAA3E0FB1202BC90009CE08A
:101A0A00404EF8A3E0F9A3E0FAA3E0FB7F007EFFD3
:101A1A007D7F7C4712002190009C12096990009CEE
:101A2A00E0FCA3E0FDA3E0FEA3E0FF7B007A80795F
:101A3A0010784412002190009C12096990009CE0E1
:101A4A00FCA3E0FDA3E0FEA3E0FF120329021B9B17
:101A5A00FCA3E0FDA3E0FEA3E0FF7B007A807910FF
:101A6A007844120021021B9B7F3D12307BAC06ADED
:101A7A0007EC12033F90009C1209697F007EB87D33
:101A8A00087C4790009CE0F8A3E0F9A3E0FAA3E001
:101A9A00FB1202BC90009CE0404CF8A3E0F9A3E0E2
:101AAA00FAA3E0FB7F007EFF7D7F7C471200219036
:101ABA00009C12096990009CE0FCA3E0FDA3E0FEF3
:101ACA00A3E0FFE4FBFA796078C412002190009C3D
:101ADA0012096990009CE0FCA3E0FDA3E0FEA3E0EC
:101AEA00FF1203298014FCA3E0FDA3E0FEA3E0FF9C
:101AFA00E4FBFA796078C4120021021B9B7F3F1233
:101B0A00307BAC06AD07EC12033F90009C120969CA
:101B1A007F007EB87D087C4790009CE0F8A3E0F93E
:101B2A00A3E0FAA3E0FB1202BC90009CE0404DF84F
:101B3A00A3E0F9A3E0FAA3E0FB7F007EFF7D7F7CB0
:101B4A004712002190009C12096990009CE0FCA3B6
:101B5A00E0FDA3E0FEA3E0FF7B007A80793B78C436
:101B6A0012002190009C12096990009CE0FCA3E0FD
:101B7A00FDA3E0FEA3E0FF1203298015FCA3E0FD0C
:101B8A00A3E0FEA3E0FF7B007A80793B78C41200D1
:101B9A002190009C12096990009CE0FCA3E0FDA33F
:101BAA00E0FEA3E0FFE4FBFA7980784612021F9078
:101BBA00009C12096990009CE0FCA3E0FDA3E0FEF2
:101BCA00A3E0FF122DCA7BE17A2E796578421201D1
:101BDA001690009C120969E4FFFE7DB47C429000D5
:101BEA009CE0F8A3E0F9A3E0FAA3E0FB1202BC60D0
:101BFA000A4008E4FFFE7DB47C4222E4FFFE7DB485
:101C0A007CC290009CE0F8A3E0F9A3E0FAA3E0FB11
:101C1A001202BC5008E4FFFE7DB47CC22290009CF4
:0B1C2A00E0FCA3E0FDA3E0FEA3E0FF50
:011C3500228C
:10327C007F4112307BEF2490FFEE3433FE7C007DD7
:09328C001C12077AEF245EFF22F8
:021E6900AB07C5
:101E6B0090008E12097500000000EB24FE70030237
:101E7B001F2124FE7003021FCD2404600302206582
:101E8B007F4312307BAC06AD07EC12033F90008E04
:101E9B001209697F007EB87D087C4790008EE0F8C0
:101EAB00A3E0F9A3E0FAA3E0FB1202BC90008EE0E2
:101EBB00404DF8A3E0F9A3E0FAA3E0FB7F007EFF1F
:101ECB007D7F7C4712002190008E12096990008E55
:101EDB00E0FCA3E0FDA3E0FEA3E0FFE4FBFA79B88E
:101EEB0078C212002190008E12096990008EE0FCDE
:101EFB00A3E0FDA3E0FEA3E0FF12032902205FFC99
:101F0B00A3E0FDA3E0FEA3E0FFE4FBFA79B878C2FF
:101F1B0012002102205F7F4512307BAC06AD07EC2F
:101F2B0012033F90008E1209697F007EB87D087CFA
:101F3B004790008EE0F8A3E0F9A3E0FAA3E0FB12D0
:101F4B0002BC90008EE0404CF8A3E0F9A3E0FAA3AA
:101F5B00E0FB7F007EFF7D7F7C4712002190008E8F
:101F6B0012096990008EE0FCA3E0FDA3E0FEA3E064
:101F7B00FFE4FBFA79D078C112002190008E120990
:101F8B006990008EE0FCA3E0FDA3E0FEA3E0FF124E
:101F9B0003298014FCA3E0FDA3E0FEA3E0FFE4FB18
:101FAB00FA79D078C112002190008E120969900045
:101FBB008EE0FCA3E0FDA3E0FEA3E0FF12032902E9
:101FCB00205F7F4712307BAC06AD07EC12033F90CE
:101FDB00008E1209697F007EB87D087C4790008EC9
:101FEB00E0F8A3E0F9A3E0FAA3E0FB1202BC900037
:101FFB008EE0404CF8A3E0F9A3E0FAA3E0FB7F00EE
:10200B007EFF7D7F7C4712002190008E1209699024
:10201B00008EE0FCA3E0FDA3E0FEA3E0FFE4FBFAEF
:10202B0079A8784112002190008E12096990008ED8
:10203B00E0FCA3E0FDA3E0FEA3E0FF120329801464
:10204B00FCA3E0FDA3E0FEA3E0FFE4FBFA79A87894
:10205B004112002190008E12096990008EE0FCA3C2
:10206B00E0FDA3E0FEA3E0FFE4FBFA790378421264
:10207B00021F90008E12096990008EE0FCA3E0FD18
:06208B00A3E0FEA3E0FF4C
:01209100222C
:1016B0009000FE12097500000000900102120975E9
:1016C0000000000090010612097500000000900162
:1016D0000A120975000000007F3B12307BAC06AD9A
:1016E00007EC12033F9000FE1209697F007EB87D6F
:1016F000087C479000FEE0F8A3E0F9A3E0FAA3E03D
:10170000FB1202BC9000FEE0404DF8A3E0F9A3E01C
:10171000FAA3E0FB7F007EFF7D7F7C4712002190D3
:1017200000FE1209699000FEE0FCA3E0FDA3E0FECC
:10173000A3E0FF7B007A80791078441200219000AA
:10174000FE1209699000FEE0FCA3E0FDA3E0FEA309
:10175000E0FF1203298015FCA3E0FDA3E0FEA3E057
:10176000FF7B007A80791078441200219000FE12ED
:1017700009699000FEE0FCA3E0FDA3E0FEA3E0FF0A
:10178000E4FBFA7980784612021F9000FE12096984
:101790007F3D12307BAC06AD07EC12033F90010297
:1017A0001209697F007EB87D087C47900102E0F84D
:1017B000A3E0F9A3E0FAA3E0FB1202BC900102E06F
:1017C000404CF8A3E0F9A3E0FAA3E0FB7F007EFF22
:1017D0007D7F7C471200219001021209699001026D
:1017E000E0FCA3E0FDA3E0FEA3E0FFE4FBFA7960E8
:1017F00078C4120021900102120969900102E0FCF4
:10180000A3E0FDA3E0FEA3E0FF1203298014FCA3E4
:10181000E0FDA3E0FEA3E0FFE4FBFA796078C412E8
:101820000021900102120969900102E0FCA3E0FD91
:10183000A3E0FEA3E0FFE4FBFA7980784612021FE2
:101840009001021209697F3F12307BAC06AD07ECB4
:1018500012033F9001061209697F007EB87D087C63
:1018600047900106E0F8A3E0F9A3E0FAA3E0FB1239
:1018700002BC900106E0404DF8A3E0F9A3E0FAA312
:10188000E0FB7F007EFF7D7F7C47120021900106F8
:10189000120969900106E0FCA3E0FDA3E0FEA3E0CD
:1018A000FF7B007A80793B78C412002190010612F8
:1018B0000969900106E0FCA3E0FDA3E0FEA3E0FFC0
:1018C0001203298015FCA3E0FDA3E0FEA3E0FF7B4B
:1018D000007A80793B78C4120021900106120969D0
:1018E000900106E0FCA3E0FDA3E0FEA3E0FFE4FB23
:1018F000FA7980784612021F900106120969900158
:1019000002E0FCA3E0FDA3E0FEA3E0FFA804A9051C
:10191000AA06FB120116C004C005C006C00790004D
:10192000FEE0FCA3E0FDA3E0FEA3E0FFA804A90500
:10193000AA06FB120116D003D002D001D00012007B
:1019400025C004C005C006C007900106E0FCA3E066
:10195000FDA3E0FEA3E0FFA804A905AA06FB12016F
:1019600016D003D002D001D000120025E4FBFA7992
:101970008078BF12002590010A1209697F0A7ED77C
:101980007DA37C3D90010AE0F8A3E0F9A3E0FAA36F
:10199000E0FB1202BC501F7F0A7ED77DA37CBD9066
:1019A000010AE0F8A3E0F9A3E0FAA3E0FB1202BC0D
:0719B00060044002C322D3D2
:0119B700220D
:1032D800438910758C70758A18D2AFD2ABD28E2202
:03001B0002293285
:10293200C0E0C0F0C083C082C0D075D000C000C06B
:1029420001C002C003C004C005C006C007758C7078
:10295200758A187E007F02E4703DEF24FE60152424
:10296200027034E4FF1219B8C004C005C006C007E3
:102972007F02800F7F021219B8C004C005C006C0D2
:1029820007E4FF121E69900092120969D007D0066F
:10299200D005D004120A79D007D006D005D004D0D1
:1029A20003D002D001D000D0D0D082D083D0F0D0DA
:0229B200E03211
:100A790090008E120969900000E0F8A3E0F9A3E064
:100A8900FAA3E0FBC000C001C002C003900028E047
:100A9900F8A3E0F9A3E0FAA3E0FB900092E0FCA33D
:100AA900E0FDA3E0FEA3E0FF1200217B0A7AD779DB
:100AB900A3783C120116D003D002D001D000120055
:100AC9002590000012096990000CE0F8A3E0F9A351
:100AD900E0FAA3E0FB7FA67E9B7D447C3B120021CC
:100AE900900010E0F8A3E0F9A3E0FAA3E0FB1200FC
:100AF90021900018120969900014E0FCA3E0FDA3FD
:100B0900E0FEA3E0FF12032990001C12096990007E
:100B190014E0FCA3E0FDA3E0FEA3E0FF120329908B
:100B290000201209699000241209753AC49BA69005
:100B39000008E0F8A3E0F9A3E0FAA3E0FBC000C0D5
:100B490001C002C0037F0A7ED77DA37C3C900018B8
:100B5900E0F8A3E0F9A3E0FAA3E0FB120116D00341
:100B6900D002D001D0001200259000081209699026
:100B7900000CE0F8A3E0F9A3E0FAA3E0FBC000C091
:100B890001C002C0037F0A7ED77DA37C3C90001C74
:100B9900E0F8A3E0F9A3E0FAA3E0FB120116D00301
:100BA900D002D001D00012002590000C12096990E2
:100BB9000010E0F8A3E0F9A3E0FAA3E0FBC000C04D
:100BC90001C002C0037F0A7ED77DA37C3C90002030
:100BD900E0F8A3E0F9A3E0FAA3E0FB120116D003C1
:100BE900D002D001D000120025900010120969909E
:100BF9000014E0F8A3E0F9A3E0FAA3E0FBC000C009
:100C090001C002C0037F0A7ED77DA37C3C900024EB
:100C1900E0F8A3E0F9A3E0FAA3E0FB120116D00380
:100C2900D002D001D0001200259000141209699059
:100C39000000E0F8A3E0F9A3E0FAA3E0FB90008E3E
:100C4900E0FCA3E0FDA3E0FEA3E0FF120021900079
:100C59002C120969900008E0FCA3E0FDA3E0FEA3C3
:100C6900E0FF900030120969900010E0FCA3E0FD5C
:100C7900A3E0FEA3E0FF900034120969E4FFFEFD42
:100C89007C3F900030E0F8A3E0F9A3E0FAA3E0FB91
:100C9900120025900038120969900038E0F8A3E0A5
:100CA900F9A3E0FAA3E0FB900030E0FCA3E0FDA388
:100CB900E0FEA3E0FF12021F90003C1209699000B8
:100CC90038E0F8A3E0F9A3E0FAA3E0FB900034E0F0
:100CD900FCA3E0FDA3E0FEA3E0FF12021F90004089
:100CE900120969900030E0FCA3E0FDA3E0FEA3E057
:100CF900FF90004412096990000CE0FCA3E0FDA3F9
:100D0900E0FEA3E0FF900048120969900008E0FCAA
:100D1900A3E0FDA3E0FEA3E0FFC004C005C006C038
:100D290007900044E0FCA3E0FDA3E0FEA3E0FF90F0
:100D3900003CE0F8A3E0F9A3E0FAA3E0FB120116F6
:100D4900A804A905AA06AB07D007D006D005D00488
:100D590012002190000812096990000CE0FCA3E040
:100D6900FDA3E0FEA3E0FFC004C005C006C00790D4
:100D79000048E0FCA3E0FDA3E0FEA3E0FF90003CF7
:100D8900E0F8A3E0F9A3E0FAA3E0FB120116A80436
:100D9900A905AA06AB07D007D006D005D0041200D2
:100DA9002190000C120969900010E0FCA3E0FDA35A
:100DB900E0FEA3E0FFC004C005C006C007900044E0
:100DC900E0FCA3E0FDA3E0FEA3E0FF900040E0F813
:100DD900A3E0F9A3E0FAA3E0FB120116A804A90510
:100DE900AA06AB07D007D006D005D004120021907F
:100DF9000010120969900014E0FCA3E0FDA3E0FED5
:100E0900A3E0FFC004C005C006C007900048E0FC8D
:100E1900A3E0FDA3E0FEA3E0FF900040E0F8A3E01B
:100E2900F9A3E0FAA3E0FB120116A804A905AA0692
:100E3900AB07D007D006D005D004120021900014CA
:100E4900120969900000E0F8A3E0F9A3E0FAA3E031
:100E5900FBC000C001C002C00390002CE0FCA3E06D
:100E6900FDA3E0FEA3E0FF90003CE0F8A3E0F9A3B6
:100E7900E0FAA3E0FB120116D003D002D001D000A2
:100E8900120025900000120969900028E0F8A3E0FB
:100E9900F9A3E0FAA3E0FBC000C001C002C00390BF
:100EA900002CE0FCA3E0FDA3E0FEA3E0FF900040DE
:100EB900E0F8A3E0F9A3E0FAA3E0FB120116D003DE
:100EC900D002D001D00012002590002812096990A3
:100ED9000028E0F8A3E0F9A3E0FAA3E0FB90009270
:100EE900E0FCA3E0FDA3E0FEA3E0FF1200219000D7
:040EF900040209697D
:1030A5000A00000000000000000000000000000011
:1030B500000000000000000000000000000000000B
:0A30C5000000000000000000000001
:1032950053877F759850438E04759CDC438E01439C
:0932A5008E10D2ACD2AFD29922F6
:08336D008F993099FDC29922ED
:1032C5001206EEFF600C12336D740129F9E43AFA27
:0332D50080EE2266
:1022EB009000C91209699000CDEBF0A3EAF0A3E9C5
:0122FB00F0F2
:1022FC0078D07C007D017BFF7A3079A77E007F143B
:10230C001206C8E49000E4F0A3F09000E4F0900012
:10231C00C9E0FCA3E0FDA3E0FEA3E0FFEC4D4E4FB3
:10232C006048E47B0AFAF9F89000C9A3A3A3E01271
:10233C00087DEB2430FF9000E4E024D0F582E434F7
:10234C0000F583EFF09000E4E004F09000C9E0FCAD
:10235C00A3E0FDA3E0FEA3E0FFE47B0AFAF9F81288
:10236C00087D9000C912096980A49000E4E0A3F0F4
:10237C00E49000E4F09000E5E0FF9000E4E0FEC3A0
:10238C009F5036EEFDC3EF9DFFE49400FE74CF2FFB
:10239C00F58274003EF583E0FF9000CDE0FBA3E0F6
:1023AC00FAA3E0F99000E4E0F582758300EF1207E0
:1023BC00469000E4E004F080BC9000CDE0FBA3E08C
:1023CC00FAA3E0F99000E4E0F582758300E40207DB
:0123DC0046BA
:062EB2009000E612096920
:102EB80078EA7C007D017BFF7A3079BB7E007F1445
:102EC8001206C89000E6E0FCA3E0FDA3E0FEA3E044
:102ED800FF7B017A0079EA1222EB7B017A0079EA1A
:032EE8000232C5EE
:1031D00090013E1209691232C590013EE0FCA3E065
:1031E000FDA3E0FEA3E0FF122EB27BFF7A3079A5AB
:0331F0000232C5E3
:10001E000203E4E86480F8E933E83360110460F029
:10002E00ED33EC337009E8FCE9FDEAFEEBFF220448
:10003E0060DED3EB9FEA9EE99DE8C2E78CF0C2F743
:10004E0095F0400CE8CCF8E9CDF9EACEFAEBCFFB0F
:10005E001203AF85D0F05804700320D5B3E80470B6
:10006E00075002B2D50203EE92D5EC0460F7E4CC51
:10007E00C0E0C398F8603B94186008400DD0E0FBD8
:10008E000203C6E4FBFAC9FC8028E830E406E4C9A2
:10009E00FBE4CAFCE830E305E4C9CACBFCE854072C
:1000AE006010F8C3E913F9EA13FAEB13FBEC13FC37
:1000BE00D8F130F52FC3E49CFCEF9BFFEE9AFEEDDA
:1000CE0099FDD0E0FBEF4E4D4C701222DB03020384
:1000DE00EBEC2CFCEF33FFEE33FEED33FDED30E7B2
:1000EE00EB0203C6EF2BFFEE3AFEED39FDD0E0FB3F
:1000FE0050130BBB00030203EEED13FDEE13FEEFE8
:08010E0013FFEC13FC0203C611
:10011600EC4D6011E8497017ED33EC3304600DE4E3
:10012600FCFFFEFD22E933E8330470F80203E41213
:1001360003AF58046009E4CC248150062850090214
:1001460003EE2840030203EBC0E0EB4A7044B9809B
:1001560006D0E0FB0203DAEF4E701CBD8008EBFF11
:10016600EAFEE9FD80EBE98DF0A4FEE5F00201FF71
:10017600E9CDF9EAFEEBFFEF89F0A4FCE5F0CE89C4
:10018600F0A42EFFE435F0CD89F0A42DFEE435F081
:100196008067EF4E7005BD80D780C3EF8BF0A4ACAF
:1001A600F0EE8BF0A42CFCE435F0F8EF8AF0A42CEA
:1001B600E5F038FCE433CB8DF0A42CFCE5F03BF8FD
:1001C600EE8AF0A42CFCE5F038F8E433CF89F0A4ED
:1001D6002CFCE5F038CF3400CE89F0A42FFFE5F0F3
:1001E6003EFEE433C98DF0A42EFEE5F039CD8AF04B
:1001F600A42FFFE5F03EFEE43DFD33D0E0FB5007C3
:100206000BBB000F0203EEEC2CFCEF33FFEE33FECC
:06021600ED33FD0203C6FA
:10021C000203EEEC5D046005E8590470030203E48C
:10022C001203AF580460F6EC4860F2EC7004FDFE6B
:10023C00FF22C860DB2481C85009C39860025006B5
:10024C000203EB9850CAF582E9294B4A7005AB8240
:10025C000203DA75F0007C1A7880C3EF9BEE9AEDFE
:10026C0099400DC3EF9BFFEE9AFEED99FDE842F02D
:10027C00DC23ACF0D0E0FFD0E0FED0E0FDAB822080
:10028C00E7101BEB60BAEC2CFCEF33FFEE33FEED0A
:10029C0033FD0203C6E803F830E705C0F075F00043
:1002AC00EF2FFFEE33FEED33FD40B830E7C280AAEE
:1002BC0074F8CC6480CCC86480C8F582046043C3F5
:1002CC00EB9FF5F0EA9E42F0E99D42F0E89C45F088
:1002DC0060305018E5825FFFE582F42B5582FB50AD
:1002EC00210ABA001D09B90019088016E5825BFBCA
:1002FC00E582F42F5582FF50090EBE00050DBD009E
:10030C00010CC3EB9FF5F0EA9E42F0E99D42F0E848
:0D031C009C45F06007CC4820E701B3EC22BF
:10032900ED33EC33600A047003BD8004ECB2E7FCE2
:0103390022A1
:10033A0075F020800E75F010800575F0087D007E3E
:10034A00007F003392D530D50312090FEC334010E9
:10035A00EF33FFEE33FEED33FDEC33FCD5F0ED2247
:0E036A00E5F0247EA2D513CC92E7CDCEFF2283
:10037800EDD2E7CD33EC3392D524814006E4FFFE7D
:10038800FDFC22FCE4CFCECDCC24E0501174FF80DC
:10039800EDC3CC13CCCD13CDCE13CECF13CF047079
:0703A800F030D5DE02090F61
:100EFD00E508249CF582E43400F583E00508229092
:100F0D00009930110390009CE475F0011209B202B2
:100F1D0006EE200AE97F2ED20A8018EF540F249096
:100F2D00D43440D4FF300E0BEF24BFB41A0050035D
:100F3D002461FFE50960021509050CE50C70020539
:100F4D000B30110E900099E475F0011209B2EF0209
:100F5D0007340230CF7403D2118003E4C211F508B7
:100F6D009000991209C9E4F509F50BF50CE5096036
:100F7D00077F20120F4080F5750AFFC20BC20AC20F
:100F8D000CC20DC20FC210C212120F0CFF700D3029
:100F9D0011057F00120F51AF0CAE0B22B4255FC2AD
:100FAD00D5C20E120F0CFF24D0B40A00501A75F0E2
:100FBD000A780930D50508B6FF0106C6A426F62025
:100FCD00D5047002D20D80D924CFB41A00EF50048D
:100FDD00C2E5D20E021243D20B80C6D20A80C0D215
:100FED000C80BCD2D580BAD20F80B47F20120F40B6
:100FFD00200C077401B5090040F1120EFDFF120F10
:10100D0040020F7AD212D2108095120EFDFB120EF5
:10101D00FDFA120EFDF94A4B700679417A137BFFEA
:10102D00200C2EE509602A7E008E82758300120742
:10103D000760060EEE650A70F0C2D5EBC0E0EAC09F
:10104D00E0E9C0E0EE1212A4D0E0F9D0E0FAD0E071
:10105D00FB1206EEFF60AAEBC0E0EAC0E0E9C0E0DB
:10106D00120F40D0E02401F9D0E03400FAD0E0FBBB
:10107D00E50A0460DCD50AD98087D20C80A2121251
:10108D008660F7E50A7001041203F9A90A600DE5FF
:10109D000A600914F50A12132EEF60F3EA30E70225
:1010AD00F404C3995079EAF4250A0430E701E40405
:1010BD00F50A800D12128660C1EA050A250A12038F
:1010CD00F9EA9000C8F030E701E4250A04D50A04D6
:1010DD00200F01141212A4E4C0E012132E9000C8C8
:1010ED00E0601320E70714F0120F28802204F0D0DF
:1010FD00E014C0E07F00120F28E50A6007120F1FF1
:10110D00150A800B300F03120F1FD0E0020F7AD09B
:10111D00E00480C4121286609EE50A041203F99061
:10112D0000C8EAF0E50A200F02600104240412123F
:01113D00A40D
:10113E0074FF04C0E012132E120F28E50A200F02CE
:10114E006003120F1FD0E0B50AE87F45120F3290F0
:10115E0000C8E07F2B30E7047F2DF404C0E0120FAF
:10116E0040D0E075F00A84C0F0120F29D0E0120FC3
:10117E0029020F7A791080027908C210C2128008F3
:10118E00D2D5790A8004790AC2D5E50A047002F52F
:10119E000AE4FAFDFEFF120EFDFC7B08200B131273
:1011AE000EFDFD7B10300A0A120EFDFE120EFDFF23
:1011BE007B20EC3382D592D55013C3E4300A069FC0
:1011CE00FFE49EFEE4200B039DFDE49CFCE4CBF8C3
:1011DE00C20BEC700CCFCECDCCE824F8F870F380B7
:1011EE0017C3EF33FFEE33FEED33FDEC33FCEB3381
:1011FE00FB994002FB0FD8E9EB300B05F8D0E0C4A9
:10120E0048B20BC0E00AEC4D4E4F78207B0070C206
:10121E00EAB50A0040BCC0E01212A6D0F0D0E02021
:10122E000B04C4C0E0C4B20BC0F0120F29D0F0D52D
:10123E00F0EB020F7A1209D21017531182580FE8F1
:10124E004C0FE44211864F118E44118E490FFD430F
:10125E0011945510C146112145108B471361500F43
:10126E00EC2D0FF02E10132B0FF423101120134A18
:10127E002A0FAC480000100BE50AB4FF03750A06EE
:10128E00120EFDFC120EFDFD120EFDFE120EFDFFE6
:10129E009000C1020436790AA2D5200D14300F0930
:1012AE00B910020404B9080104A2D520100250019D
:1012BE0004200C68920CB509005034C0E07F203039
:1012CE000D197F30A20C7210720F500F1212FDC248
:1012DE000CC210C20FC2127F30800F300F03E9C054
:1012EE00E0120F40300F03D0E0F9D0E0B509CC305A
:1012FE000F177F30B9100C120F407F58300E077F3A
:10130E00788003B90803120F40300C057F2D020FB1
:10131E00407F202012F87F2B2010F322920C80CFDA
:10132E007F00B40700500B24C1F582E43400F5832E
:10133E00E0FF22286E756C6C2900D20B120EFD3068
:10134E000BF8C20B780930D50108F6020FAC2D5000
:10135E00434958120EFD2403B405004001E49013D6
:10136E005C93120F31743A120F31D20D75090402CB
:02137E001182DA
:102DCA00ECC0E0F8EDC0E0F9EEC0E0FAEFC0E0FBDD
:102DDA00120116EC6480FC7B007A007980783F123D
:102DEA00002512263AD0E0CFFBD0E0CEFAD0E0CDD3
:0B2DFA00F9D0E0CCF812021F0221E922
:1003AF00E9D2E7C933E833F892D5EDD2E7CD33EC94
:0703BF0033FC5002B2D5220D
:1003C600EC30E7100FBF000C0EBE00080DBD000498
:1003D6000BEB6014A2D5EB13FCED92E7FD2274FF44
:1003E600FCFDFEFF22E480F8A2D574FF13FC7D809D
:0303F600E480EFB1
:1003F900F920E73624F950037907E4F42402FBE5F0
:1004090082158270021583DBF6E024FB501BE9603C
:1004190014E4F0E582158270021583E004F0B40A51
:0D04290008E4F0D9EE7401F00A22C2D522D9
:10043600ED33EC3392D5FA602AB4FF33EDC2E77B95
:10044600FF60067A04795BE4227A04796420D50495
:100456007A04795F224E614E002B494E46002D49A3
:100466004E4600E47A08F0A3DAFC7B00740722C04B
:1004760083C082ECC0E0EDC0E0EEC0E0EFC0E0EA91
:1004860075F010A4CAABF075F04DA42BFBE435F063
:10049600FCEA2410FAEB34C5FBEC34D9FCEDC2E7D8
:1004A600FF75F056A4F42411C5F0F434C58FF0A4FA
:1004B6002AE5F03BE43CF020E71412056BD0E0FFA0
:1004C600D0E0FED0E0FDD0E0FC12021F8014F40460
:1004D60012056BD0E0FFD0E0FED0E0FDD0E0FC12CC
:1004E6000116D082D083E0FAEDD2E7CD33EC332487
:1004F60082FBE4C3CF33CFCE33CECD33CD33DBF364
:100506007B0775F00A846004F0A31B0AE5F0F0A3EC
:100516008FF0740AA4FFACF08EF0740AA42CFEAC23
:10052600F050010C8DF0740AA42CFDE435F0F0A314
:05053600DBDE7407226A
:102636000203E422EDA2E7D2E7F9EC3340F260F3BD
:10264600B4FF08ED547F70E80203EEF82481C2E07F
:10265600C0E0F40428FAC313FCED92E7FD9000A055
:10266600120969EEA2E7E9BA7F02C31334009400A7
:10267600FA75F091A4E5F013F494FE8AF0A433E51C
:10268600F033248CD313FDE492E7FE7F007C3F7584
:102696008302ECC0E0F8EDC0E0F9EEC0E0FAEFC06E
:1026A600E0FB8583F09000A012093185F0831202C9
:1026B6001FD0E0FBD0E0FAD0E0F9D0E0F812002518
:1026C600ED6480FD30E7011CD583C7ED33CC33F8CC
:0C26D600D0E0A2E71328C313CC13FD22B0
:1021C900BE1249253E4CCCCDBEAAAAAB3F80000029
:1021D9003E7ADBB03EED63383F24BC7D3F490FDBDF
:1021E900ED33ECC2E7CC33920AB4FF13ED547F60B0
:1021F900030203E47FDB7E0F7DC97C3F0222DEC23E
:102209000BC3947F401E7007EDD2E794904015EF01
:10221900FBEEFAEDF9ECF87F007E007D807C3F1241
:10222900021FD20BED33EC33248430E705E4C0E020
:10223900806B04FAEDD2E754F0C333DAFD54073466
:10224900002323C0E0CCC0E0F8EDC0E0F9EEC0E027
:10225900FAEFC0E0FBE4120344EC24FEFC9000A07A
:102269001209691201167B007A007980783F120001
:10227900259000A0E0B2E7CCF0A3E0CDF0A3E0CE3A
:10228900F0A3E0CFF0D0E0FBD0E0FAD0E0F9D0E065
:10229900F81200259000A012094D12021F9000A00B
:1022A9001209699021C974031205AB9000A01209A3
:1022B9004D120116D0E0600F24D5F582E43421F5E2
:1022C90083120959120025300B0B7BDB7A0F79C970
:1022D90078BF120025ED33EC336006ECA20A92E7D1
:0222E900FC22D5
:10053B003F8000004120000042C80000447A0000C8
:10054B00461C400047C35000497424004B1896804A
:10055B004CBEBC205A0E1BCA6753C21C749DC5AE41
:10056B00FB60065407601C2323120599EB5438607B
:10057B0009120585120594120116ECF8EDF9EEFA45
:10058B00EFCB22EB12059480F1543803241C900519
:10059B003BFE93FC0EEE93FD0EEE930ECE93FF22DD
:1005AB00C0E0EFFBEEFAEDF9ECF8120116D0E0F536
:1005BB00F0EFFBEEFAEDF9ECF812093DA3A3A3A3C0
:1005CB00E8C0E0E9C0E0EAC0E0EBC0E0C0F0120137
:1005DB0016120959A3A3A3A3120025D0F0D0E0FB58
:0D05EB00D0E0FAD0E0F9D0E0F8D5F0D4224D
:03000000022820B3
:0C282000787FE4F6D8FD7581220228675D
:1005F800E709F608DFFA8046E709F208DFFA803EE5
:1006080088828C83E709F0A3DFFA8032E309F608D1
:10061800DFFA8078E309F208DFFA807088828C8339
:10062800E309F0A3DFFA806489828A83E0A3F608ED
:10063800DFFA805889828A83E0A3F208DFFA804CC7
:1006480080D280FA80C680D4806980F2803380109E
:1006580080A680EA809A80A880DA80E280CA803307
:1006680089828A83ECFAE493A3C8C582C8CCC5837F
:10067800CCF0A3C8C582C8CCC583CCDFE9DEE7804F
:100688000D89828A83E493A3F608DFF9ECFAA9F0CE
:10069800EDFB2289828A83ECFAE0A3C8C582C8CC24
:1006A800C583CCF0A3C8C582C8CCC583CCDFEADE3D
:1006B800E880DB89828A83E493A3F208DFF980CC9F
:1006C80088F0EF60010E4E60C388F0ED2402B40498
:1006D8000050B9F582EB2402B4040050AF2323453F
:0606E80082239006487316
:1006EE00BB010689828A83E0225002E722BBFE020A
:0906FE00E32289828A83E493223D
:10070700BB010CE58229F582E5833AF583E02250A7
:1007170006E92582F8E622BBFE06E92582F8E222F1
:0D072700E58229F582E5833AF583E493220B
:10073400BB010689828A83F0225002F722BBFE01A4
:02074400F3229E
:10074600F8BB010DE58229F582E5833AF583E8F0E9
:10075600225006E92582C8F622BBFE05E92582C895
:02076600F2227D
:10076800EF8DF0A4A8F0CF8CF0A428CE8DF0A42EA5
:02077800FE225F
:10077A00C2D5EC30E709B2D5E4C39DFDE49CFCEE9A
:10078A0030E715B2D5E4C39FFFE49EFE120A24C3E4
:10079A00E49DFDE49CFC8003120A2430D507C3E4DF
:0607AA009FFFE49EFE2209
:1007B000C5F0F8A3E028F0C5F0F8E58215827002D4
:0607C0001583E038F02271
:1007C600A3F8E0C5F025F0F0E582158270021583E6
:0607D600E0C838F0E82243
:1007DC00BB0110E58229F582E5833AF583E0F5F05B
:1007EC00A3E0225009E92582F886F008E622BBFE38
:1007FC000AE92582F8E2F5F008E222E5832AF5837E
:08080C00E993F5F0A3E9932242
:10081400F8BB0111E58229F582E5833AF583E8F016
:10082400E5F0A3F0225009E92582C8F608A6F022D3
:0D083400BBFE09E92582C8F2E5F008F222BA
:1008410075F008758200EF2FFFEE33FECD33CDCC6E
:1008510033CCC58233C5829BED9AEC99E5829840F1
:100861000CF582EE9BFEED9AFDEC99FC0FD5F0D6CE
:10087100E4CEFBE4CDFAE4CCF9A88222B800C1B9F8
:100881000059BA002DEC8BF084CFCECDFCE5F0CB36
:10089100F97818EF2FFFEE33FEED33FDEC33FCEB6F
:1008A10033FB10D703994004EB99FB0FD8E5E4F92A
:1008B100FA227818EF2FFFEE33FEED33FDEC33FC17
:1008C100C933C910D7059BE99A4007EC9BFCE99A0B
:1008D100F90FD8E0E4C9FAE4CCFB2275F010EF2F50
:1008E100FFEE33FEED33FDCC33CCC833C810D70750
:1008F1009BEC9AE899400AED9BFDEC9AFCE899F88B
:0E0901000FD5F0DAE4CDFBE4CCFAE4C8F9221D
:0E090F00C3E49FFFE49EFEE49DFDE49CFC22F9
:10091D00E86010ECA2E713FCED13FDEE13FEEF13F0
:04092D00FFD8F022DD
:0C093100E0FCA3E0FDA3E0FEA3E0FF2239
:10093D00E493FC740193FD740293FE740393FF2200
:0C094D00E0F8A3E0F9A3E0FAA3E0FB222D
:10095900E493F8740193F9740293FA740393FB22F4
:0C096900ECF0A3EDF0A3EEF0A3EFF02201
:10097500A8828583F0D083D08212098C12098C124B
:10098500098C12098CE473E493A3C583C5F0C58370
:10099500C8C582C8F0A3C583C5F0C583C8C582C8CC
:0109A500222F
:0C09A600A42582F582E5F03583F583225C
:1009B200F8E0FBA3A3E0F925F0F0E58215827002CE
:0709C2001583E0FA38F02272
:0909C900EBF0A3EAF0A3E9F0222F
:1009D200D083D082F8E4937012740193700DA3A3B4
:1009E20093F8740193F5828883E4737402936860C8
:0609F200EFA3A3A380DFC8
:1030CF00EFB40A07740D1230DA740A309811A89908
:1030DF00B8130CC2983098FDA899C298B811F63061
:0730EF0099FDC299F5992239
:1009F800EF4E6012EF60010EEDBB010B89828A8316
:100A0800F0A3DFFCDEFA2289F05007F709DFFCA922
:0C0A1800F022BBFEFCF309DFFCA9F02279
:10282C00023365E493A3F8E493A34003F68001F22A
:10283C0008DFF48029E493A3F85407240CC8C333AD
:10284C00C4540F4420C8834004F456800146F6DF7C
:10285C00E4800B0102040810204080902B48E47E99
:10286C00019360BCA3FF543F30E509541FFEE49371
:10287C00A360010ECF54C025E060A840B8E493A338
:10288C00FAE493A3F8E493A3C8C582C8CAC583CA63
:10289C00F0A3C8C582C8CAC583CADFE9DEE780BE1B
:012B9D000037
:100A2400BC000BBE0029EF8DF084FFADF022E4CCB6
:100A3400F875F008EF2FFFEE33FEEC33FCEE9DEC7F
:100A4400984005FCEE9DFE0FD5F0E9E4CEFD22EDC5
:100A5400F8F5F0EE8420D21CFEADF075F008EF2F0F
:100A6400FFED33FD4007985006D5F0F222C398FD00
:050A74000FD5F0EA229D
:00000001FF
