:1014CD002B5F2B484C4B4A204341522B5F2B005432
:1014DD007970653A2052535F4F4E4520200053736B
:1014ED0070643A2078787820636D2F7300416E67B1
:1014FD006C3A207878782020202020004773706483
:10150D003A2078787820636D2F7300547970653A9E
:10151D002025730052535F4F4E4520200052535FDC
:10152D0054574F20200054545F54574F20200054DF
:10153D00545F464F55522000545950452045525244
:10154D0000537370643A2078787878636D2F730048
:10155D00416E676C3A20787878782020200073658A
:10156D006E6420207375636365737321200073654A
:0E157D006E6420206572726F722120202000A3
:101B7B004F0030202020202020202020202020203B
:061B8B00200041004F00A4
:081D6B00121CD212101E80FBB5
:101CD200121D581219CD121D62121D7A1218C71246
:051CE200187A021D3517
:0A1D580075BBFF5392F043910F2278
:1019CD007F061217CB900050EEF0A3EFF07F0412BC
:1019DD0017CB900052EEF0A3EFF07F071217CB90CC
:1019ED000054EEF0A3EFF07F051217CB900056EEEA
:0A19FD00F0A3EFF0E490003FF022A9
:1018C70012190E121A077BFF7A1479CDE4FDFF1265
:1018D7001B4C7BFF7A1479DC7D01E4FF121B4C7BE8
:1018E700FF7A1479EB7D02E4FF121B4C7BFF7A141D
:1018F70079FA7D03E4FF121B4C7BFF7A1579097D8A
:0719070004E4FF121B4C2257
:0C1D3500C2C77FF47E01121C17D2C72227
:10101E007B017A00794012163678477C007D017B81
:10102E00017A0079407E007F071205FD7B017A0070
:10103E007947121765EF700302123B90003FE07084
:10104E000302123890000374FFF0A37415F0A3741A
:10105E0018F0900040E0FFB401087BFF7A1579216B
:10106E008028EFB402087BFF7A15792A801CEFB432
:10107E0002087BFF7A1579338010EF7BFFB40206EE
:10108E007A15793C80047A157945900006EBF0A329
:10109E00EAF0A3E9F07B017A0079301208D07B01E7
:1010AE007A0079307D01E4FF121B4C90000374FF2F
:1010BE00F0A37415F0A3744EF07B017A0079301210
:1010CE0008D0900041E0FEA3E0FFEE90003530E73F
:1010DE0013742BF0C3E49F900042F074049E9000B2
:1010EE0041F08003742DF0900041E05403FAA3E028
:1010FE00FB7C037DE8FFAE021206AFEF24309000BA
:10110E0036F07C037DE8AF03AE021206AF7E007FA1
:10111E0064CFCDCFCECCCE1206AFEF2430A3F0905D
:10112E000041E05403FAA3E07C007D64FFAE02129E
:10113E0006AF7E007F0ACFCDCFCECCCE1206AFEF5C
:10114E002430900038F07C007D0AAF03AE02120608
:10115E00AFED2430A3F07B017A0079307D02E4FFFD
:10116E00121B4C90000374FFF0A37415F0A3745D72
:10117E00F07B017A0079301208D0900043E0FEA394
:10118E00E0FFEE90003530E715742BF0C3E49FFFBF
:10119E0074049E5403900043F0A3EFF08003742D6B
:1011AE00F0900043E05403FAA3E0FB7C037DE8FFDC
:1011BE00AE021206AFEF2430900036F07C037DE8CD
:1011CE00AF03AE021206AF7E007F64CFCDCFCECC82
:1011DE00CE1206AFEF2430A3F0900043E05403FA92
:1011EE00A3E07C007D64FFAE021206AF7E007F0A94
:1011FE00CFCDCFCECCCE1206AFEF2430900038F04C
:10120E007C007D0AAF03AE021206AFED2430A3F0D0
:10121E007B017A0079307D03E4FF121B4C7BFF7A51
:10122E0015796B7D05E4FF121B4CB2B42290003F82
:10123E00E0600D7BFF7A15797B7D05E4FF121B4C78
:02124E00D2B418
:01125000227B
:0B163600900000EBF0A3EAF0A3E9F045
:101641007E007F077D00900000E0FBA3E0FAA3E0AD
:10165100F91207EA900000E0FBA3E0FAA3E0F974B5
:10166100011206697F061217CB900050E0FCA3E03F
:10167100FDC3EF9DFFEE9CFE900000E0FBA3E0FAAE
:10168100A3E0F9900001EE8FF01207497F051217D0
:10169100CB900056E0FCA3E0FDC3EF9DFFEE9CFE66
:1016A100900000E0FBA3E0FAA3E0F9900003EE8FC5
:1016B100F0120749900001120711FF1206232FFFB4
:1016C100E435F0FE9000031207112FFFEE35F09084
:0716D10000058FF01207492C
:0116D80022EF
:100CEE000000000000000000002F000000000700C0
:100CFE00070000147F147F1400242A7F2A1200623A
:100D0E0064081323003649552250000005030000E5
:100D1E0000001C224100000041221C000014083E6D
:100D2E0008140008083E0808000000A06000000833
:100D3E000808080800006060000000201008040287
:100D4E00003E5149453E0000427F40000042615145
:100D5E004946002141454B31001814127F100027DF
:100D6E0045454539003C4A494930000171090503A2
:100D7E0000364949493600064949291E00003636D3
:100D8E000000000056360000000814224100001436
:100D9E001414141400004122140800020151090613
:100DAE0000324959513E007C1211127C007F494994
:100DBE004936003E41414122007F4141221C007FC5
:100DCE0049494941007F09090901003E4149497AD3
:100DDE00007F0808087F0000417F4100002040414D
:100DEE003F01007F08142241007F40404040007FB9
:100DFE00020C027F007F0408107F003E4141413EFD
:100E0E00007F09090906003E4151215E007F091944
:100E1E0029460046494949310001017F0101003F41
:100E2E004040403F001F2040201F003F4038403FC1
:100E3E000063140814630007087008070061514925
:100E4E00454300007F41410000552A552A550000B8
:100E5E0041417F0000040201020400404040404036
:100E6E00000001020400002054545478007F4844CE
:100E7E00443800384444442000384444487F003805
:100E8E005454541800087E0901020018A4A4A47C2E
:100E9E00007F080404780000447D400000408084F8
:100EAE007D00007F102844000000417F4000007C40
:100EBE0004180478007C080404780038444444384C
:100ECE0000FC242424180018242418FC007C080498
:100EDE00040800485454542000043F444020003C71
:100EEE004040207C001C2040201C003C4030403CF8
:100EFE00004428102844001CA0A0A07C0044645488
:100F0E004C44141414141414112248C47B4A6A4A13
:100F1E004AFA4200040200030202030A0A07020010
:100F2E000022AA2A2AEA2A2A2ABE00000809040454
:100F3E00020102040508080012D2FE51901224008C
:100F4E00FF80800001000F00000101010F00000072
:100F5E008888FF4824E4243F24E4040000080F009E
:100F6E00080805020508080000FC949494FF949468
:100F7E0094FE0400000100000003040404040600B3
:100F8E002021212121F929252331200000000004F0
:100F9E00040700000000000018D654FF5456D40079
:100FAE00FC00FF000003000700020300040407001A
:100FBE001008FC130804FF2424240400000007007A
:100FCE000000070101010100406252CA47E242DE01
:100FDE0050505800040201040407000001020400EE
:100FEE0004A424A424BF242424A604000201000780
:100FFE0004040504060003008444F52E401010FF7F
:10100E00101010000000070004040407040404007C
:0E1CFC00E4FFFE0FBF00010EBE03F8BFE8F5C7
:011D0A0022B6
:0E1D0B00E4FFFE0FBF00010EBE04F8BF74F52A
:011D190022A7
:041CA200AD07AC06D8
:101CA600E4FBFAC3EB9DEA9C500A121D0B0BBB002A
:041CB600010A80EFB0
:011CBA002207
:10190E00C2A0121CFCD2A0C2A1121CFCD2A1121C9D
:10191E00FCE4FD7F21121B25E4FD7FC8121B25E48C
:10192E00FD7F06121B25E4FD7F13121B25E4FD7FB0
:10193E0020121B25121A07E4FD7F0C121B25C2A1D3
:03194E00D2C622DC
:101A0700E4FD7F0C121B25E4FD7F80121B25E4906B
:101A17000000F0A3F07D01E4FF121B25900001E018
:101A270004F07006900000E004F0C3900001E09419
:091A3700F8900000E0940140DC8D
:011A40002283
:101C8800900003EFF0ED4440FFE4FD121B259000A7
:0A1C980003E04480FFE4FD021B2579
:051A4100900003EFF02E
:101A4600E024E0F0E4A3F0900004E0FFC394065025
:101A560020900003E075F006A424EEF582E5F0344C
:101A66000CF583E5822F121B19900004E004F08028
:011A7600D699
:011A7700224C
:101B4C00900000EBF0A3EAF0A3E9F0121C889000DF
:101B5C0000E0FBA3E0FAA3E0F9120623FF600F12EA
:0F1B6C001A41900001E475F0011206E580E022B5
:0D133200900070EBF090006EEFF0A3EDF076
:10133F00121C88E4900074F0900071E0FF9000742C
:10134F00E0C39F400302140CE4A3F0900070E0FD93
:10135F0075F002A4FF900075E0FCC39FE5F0648078
:10136F00F8748098506DEC6D702E900074E07006DC
:10137F0090006EE0801A900073E0FF900070E02FF5
:10138F00FF900074E0FEEF8EF0A4FF90006EE02F50
:10139F00FFA3E004FD121C88900074E0FF90007220
:1013AF00E02FFFE433FE900F1675F018EF12079839
:1013BF00EE75F018A42583F583C083C08290007565
:1013CF00E0D082D0832582121B19900075E004F0C3
:1013DF0002135A900074E004F0900073E0FF900045
:1013EF0070E02FFF900074E0FEEF8EF0A4FF9000EE
:0D13FF006EE02FFFA3E0FD121C88021347D3
:01140C0022BD
:10140D00900058EFF0A3EDF0A3EBF0A3EAF0A3E901
:01141D00F0DE
:10141E0090005EE0FF54077008EF131313541F8003
:10142E000A90005EE0131313541F04900063F0E45F
:10143E00900061F0A3F0900063E0FFC3900062E0C3
:10144E009F900061E094005075900058E0FFA3E07B
:10145E00FD121C88E490005FF0A3F090005DE0FFA9
:10146E007E0090005FE0FAA3E0FBC39FEA9E503738
:10147E00A3E0FCA3E0FD12069DEB2FFFEA3EFE90DB
:10148E00005AE0FBA3E0FAA3E0F98F828E831206E6
:10149E003CFF7D01121B25900060E004F070BC90B3
:1014AE00005FE004F080B4900059E004F090006218
:0E14BE00E004F07081900061E004F00214443C
:0114CC0022FD
:0C1B1900F582E43583F583E493FF7D0141
:101B2500C2A1ED7004C2A28002D2A2E4FEEF30E7AA
:101B350004D2A38002C2A3C2A4EF25E0FFD2A40E63
:061B4500EEB408E9D2A194
:011B4B002277
:0B1D4D00EF1FAC0670011E4C70F62268
:041C3700AB07AA0647
:101C3B00900000C3E5829BE5839A500A7F017E00EA
:061C4B00121D4DA380ED07
:011C51002270
:101C1700E4FDFCC3ED9FEC9E5015E4FBFA0BBB0003
:0F1C2700010ABA02F8BB58F50DBD00010C80E4AC
:011C3600228B
:091D6200D2B7D2B6D2B5D2B42238
:101BCD00EF14601014601314601624037017ED24C5
:101BDD00FF92B422ED24FF92B522ED24FF92B6229E
:061BED00ED24FF92B72277
:10187A00E4900000F0F0900000E0FFC364809484DC
:10188A005014E4FD121BCD7FE87E03121C17900052
:10189A0000E004F080E09000007403F0900000E0A3
:1018AA00FFD36480947F40147D01121BCD7FE87EB4
:0C18BA0003121C17900000E014F080E006
:0118C60022FF
:041B910041007B0094
:101AAF00438901900000E0FEA3E0FBC374FF9BFF9E
:101ABF0074FF9EFEE49400FDE49400FC7808120786
:101ACF00848F8C900000A3E0FBC374FF9BFF8F8A71
:051ADF00C28CC2A92227
:0E1D1A00438910758DB1758BDFC28EC2AB226E
:05000600D288C2A8220F
:05000E00D28AC2AA2203
:03000300021C528A
:101C5200C0E0C083C082900000E004F070069000F3
:0B1C620000E004F0D082D083D0E0321C
:03001300021C6D5F
:101C6D00C0E0C083C082900000E004F070069000D8
:0B1C7D0000E004F0D082D083D0E03201
:03000B0002158B50
:10158B00C0E0C083C082C0D075D000C000C002C014
:09159B0003C004C005C006C0072E
:1015A40090007BE064017040F0900000E0FEA3E056
:1015B400FFC374209FFF744E9EFAC374FF9FFF7491
:1015C400FF9AFEE49400FDE49400FC78081207847A
:1015D4008F8C900000A3E0FFC374209FFFC374FFAF
:1015E4009FFF8F8AB2B4803390007B7401F0900027
:1015F40000E0FEA3E0FBC374FF9BFF74FF9EFEE4C8
:101604009400FDE49400FC78081207848F8C900009
:0B16140000A3E0FBC374FF9BFF8F8A64
:10161F00D007D006D005D004D003D002D000D0D050
:07162F00D082D083D0E0322D
:03001B000212517D
:10125100C0E0C0F0C083C082C0D075D000C000C063
:1012610001C002C003C004C005C006C007758DB12E
:10127100758BDF900000E06401600302130F9000A2
:1012810000E004F07006900000E004F0D39000004C
:10129100E09432900000E094004073C2A8C2AA908A
:1012A1000000E0FCA3E0FDE41201C9E4FBFA79F0DF
:1012B10078411201277B717A3D794F784312001EE4
:1012C100120202900000EEF0A3EFF0900000E0FCAB
:1012D100A3E0FDE41201C9E4FBFA79F078411201BF
:1012E100277B717A3D794F784312001E12020290DA
:1012F1000000EEF0A3EFF0900000E4F0A3F0900006
:1013010000F0A3F0900000F0A3F0D2A8D2AA121C22
:10131100E7900000EFF0D007D006D005D004D0034D
:10132100D002D001D000D0D0D082D083D0F0D0E094
:011331003289
:101CE70020B0037F012220B1037F022220B2037FAD
:051CF70003227F002222
:101B950045006401123456784500690112345678BF
:071D7300C280C281D2872269
:0A1BF300EBF0A3EAF0A3E9F0C287CB
:101BFD00E4FEEF339285EF25E0FFD281A282E4333C
:091C0D004FFFC2810EEEB408E99C
:011C160022AB
:061CBB00C2807D0F7F20B6
:101CC100C287121BFDAC07AF05121BFDD287AF0403
:011CD10022F0
:0C1D2800C287121BFDE4FF121BFDD287D6
:011D3400228C
:0E1951007B017A0079649000087405F07F2A0B
:03195F00900005F0
:10196200121BF3AD07E4FC900008E0FFECC39F50AC
:101972001A900005E0FBA3E475F0011206FBA9F042
:0F198200FA120623FF121BFD0C80DCD287AF0583
:011991002233
:10182700C280E4FD7FE1121CC17B017A00796490DC
:1018370000087405F07F3012195F1219517D017F7E
:1018470021121CC17F22121CC17D1A7F24121CC1C8
:101857007D287F25121CC17D077F26121CC17F3181
:10186700121CC17D0E7F20121CC1D2807F647E00B6
:03187700021C1739
:0B176500900000EBF0A3EAF0A3E9F015
:10177000C280121951E4FD7FE1121CC1900000E00B
:10178000FBA3E0FAA3E0F99000087407F07FA01231
:10179000195F7D0E7F20121CC1D2807F967E0012C1
:1017A0001C177F07121D28EF30E50EFD7F27121C46
:1017B000C19000037401F0800CAD077F27121CC19B
:0A17C000E4900003F0900003E0FF46
:0117CA0022FC
:031AE400900077F8
:101AE700121BF3AD07E4FC90007AE0FFECC39F50B4
:101AF7001CE4FF121BFD900077E0FBA3E0FAA3E0D4
:101B0700F98C82758300EF12067B0C80DAD287AFDF
:011B170005C8
:011B180022AA
:0C1D4100121CBBD2807F0A7E00021C171F
:10199200E490007CF07F07121D288F20300613C2CE
:1019A2008090007A7407F07F61121AE490007C74D0
:1019B20001F0AD207F27121CC1121CBBD2807F0A0E
:0A19C2007E00121C1790007CE0FF6D
:0119CC0022F8
:101A7800C280E4FD7FE2121CC11219517D017F2151
:101A8800121CC17F22121CC17D287F25121CC17D1A
:101A9800077F31121CC17F26121CC1121CBDD280C7
:071AA8007F827E00021C1783
:061D7A00121D7302182780
:061D8000121D73021A7827
:1017CB00E4900003F0A3F004A807088002C333D809
:1017DB00FCFE4292EE429175BCE0EF42BC7F647E10
:1017EB0000121D4DE4F5BDF5BE43BC080000000022
:1017FB0000E5BC30E4FB53BCE7AFBDEF75F004A4D0
:10180B00ADBE7C002DFEEC35F0900003F0A3CEF0C6
:0B181B00E4F5BC900003E0FEA3E0FF3A
:01182600229F
:10001E00EC4D6011E8497017ED33EC3304600DE4DC
:10002E00FCFFFEFD22E933E8330470F802026E1283
:10003E00023958046009E4CC248150062850090284
:10004E000278284003020275C0E0EB4A7044B98082
:10005E0006D0E0FB020264EF4E701CBD8008EBFF81
:10006E00EAFEE9FD80EBE98DF0A4FEE5F002010762
:10007E00E9CDF9EAFEEBFFEF89F0A4FCE5F0CE89BD
:10008E00F0A42EFFE435F0CD89F0A42DFEE435F07A
:10009E008067EF4E7005BD80D780C3EF8BF0A4ACA8
:1000AE00F0EE8BF0A42CFCE435F0F8EF8AF0A42CE3
:1000BE00E5F038FCE433CB8DF0A42CFCE5F03BF8F6
:1000CE00EE8AF0A42CFCE5F038F8E433CF89F0A4E6
:1000DE002CFCE5F038CF3400CE89F0A42FFFE5F0EC
:1000EE003EFEE433C98DF0A42EFEE5F039CD8AF044
:1000FE00A42FFFE5F03EFEE43DFD33D0E0FB5007BC
:10010E000BBB000F020278EC2CFCEF33FFEE33FE3C
:06011E00ED33FD0202506A
:10012400020278EC5D046005E85904700302026E73
:10013400120239580460F6EC4860F2EC7004FDFEDB
:10014400FF22C860DB2481C85009C39860025006AE
:100154000202759850CAF582E9294B4A7005AB82B0
:1001640002026475F0007C1A7880C3EF9BEE9AED6E
:1001740099400DC3EF9BFFEE9AFEED99FDE842F026
:10018400DC23ACF0D0E0FFD0E0FED0E0FDAB822079
:10019400E7101BEB60BAEC2CFCEF33FFEE33FEED03
:1001A40033FD020250E803F830E705C0F075F000B3
:1001B400EF2FFFEE33FEED33FD40B830E7C280AAE7
:1001C40075F020800E75F010800575F0087D007EB6
:1001D400007F003392D530D503120776EC334010FC
:1001E400EF33FFEE33FEED33FDEC33FCD5F0ED22BF
:0E01F400E5F0247EA2D513CC92E7CDCEFF22FB
:10020200EDD2E7CD33EC3392D524814006E4FFFEF4
:10021200FDFC22FCE4CFCECDCC24E0501174FF8053
:10022200EDC3CC13CCCD13CDCE13CECF13CF0470F0
:07023200F030D5DE02077673
:10086B00E5082403F582E43400F583E005082290C3
:10087B000000300F03900003E475F0011207A4028F
:10088B0006232008E97F2ED2088018EF540F2490FE
:10089B00D43440D4FF300C0BEF24BFB41A005003F8
:1008AB002461FFE50960021509050CE50C700205D2
:1008BB000B300F0E900000E475F0011207A4EF024D
:1008CB000669021BA67403D20F8003E4C20FF5085E
:1008DB009000001207BBE4F509F50BF50CE5096078
:1008EB00077F201208AE80F5750AFFC209C208C245
:1008FB000AC20BC20DC20EC21012087AFF700D3065
:10090B000F057F001208BFAF0CAE0B22B4255FC2E0
:10091B00D5C20C12087AFF24D0B40A00501A75F015
:10092B000A780930D50508B6FF0106C6A426F620BD
:10093B00D5047002D20B80D924CFB41A00EF500427
:10094B00C2E5D20C020BB1D20980C6D20880C0D24C
:10095B000A80BCD2D580BAD20D80B47F201208AEEB
:10096B00200A077401B5090040F112086BFF120849
:10097B00AE0208E8D210D20E809512086BFB12085B
:10098B006BFA12086BF94A4B700679AF7A0C7BFF46
:10099B00200A2EE509602A7E008E827583001206DE
:1009AB003C60060EEE650A70F0C2D5EBC0E0EAC003
:1009BB00E0E9C0E0EE120C12D0E0F9D0E0FAD0E0A2
:1009CB00FB120623FF60AAEBC0E0EAC0E0E9C0E03F
:1009DB001208AED0E02401F9D0E03400FAD0E0FBED
:1009EB00E50A0460DCD50AD98087D20A80A2120BF3
:1009FB00F460F7E50A700104120283A90A600DE5A1
:100A0B000A600914F50A120C9CEF60F3EA30E70256
:100A1B00F404C3995079EAF4250A0430E701E4049D
:100A2B00F50A800D120BF460C1EA050A250A1202C1
:100A3B0083EA90002FF030E701E4250A04D50A047D
:100A4B00200D0114120C12E4C0E0120C9C90002F2C
:100A5B00E0601320E70714F0120896802204F0D010
:100A6B00E014C0E07F00120896E50A600712088DBB
:100A7B00150A800B300D0312088DD0E00208E8D068
:100A8B00E00480C4120BF4609EE50A04120283900A
:100A9B00002FEAF0E50A200D026001042404120C79
:010AAB001238
:100AAC0074FF04C0E0120C9C120896E50A200D029B
:100ABC00600312088DD0E0B50AE87F451208A090BB
:100ACC00002FE07F2B30E7047F2DF404C0E01208E8
:100ADC00AED0E075F00A84C0F0120897D0E012088E
:100AEC00970208E8791080027908C20EC2108008BB
:100AFC00D2D5790A8004790AC2D5E50A047002F5C8
:100B0C000AE4FAFDFEFF12086BFC7B0820091312A5
:100B1C00086BFD7B1030080A12086BFE12086BFF85
:100B2C007B20EC3382D592D55013C3E43008069F5A
:100B3C00FFE49EFEE42009039DFDE49CFCE4CBF85D
:100B4C00C209EC700CCFCECDCCE824F8F870F38051
:100B5C0017C3EF33FFEE33FEED33FDEC33FCEB3319
:100B6C00FB994002FB0FD8E9EB300905F8D0E0C443
:100B7C0048B209C0E00AEC4D4E4F78207B0070C2A1
:100B8C00EAB50A0040BCC0E0120C14D0F0D0E02052
:100B9C000904C4C0E0C4B209C0F0120897D0F0D563
:100BAC00F0EB0208E81207C40985530AF0580956FD
:100BBC004C0952420AF44F0AFC440AFC49096B43A3
:100BCC000B02550A2F460A8F4509F9470CCF5009DD
:100BDC005A2D095E2E09812B096223097F200CB83E
:100BEC002A091A4800000979E50AB4FF03750A06B8
:100BFC0012086BFC12086BFD12086BFE12086BFFDF
:100C0C009000280202C0790AA2D5200B14300D09DD
:100C1C00B910020404B9080104A2D5200E02500137
:100C2C0004200A68920AB509005034C0E07F2030D5
:100C3C000B197F30A20A720E720D500F120C6BC280
:100C4C000AC20EC20DC2107F30800F300D03E9C0F6
:100C5C00E01208AE300D03D0E0F9D0E0B509CC308D
:100C6C000D177F30B9100C1208AE7F58300C077F6F
:100C7C00788003B908031208AE300A057F2D0208EC
:100C8C00AE7F202010F87F2B200EF322920A80CF0B
:100C9C007F00B40700500B2428F582E43400F58360
:100CAC00E0FF22286E756C6C2900D20912086B309B
:100CBC0009F8C209780930D50108F602091A2D5035
:100CCC0043495812086B2403B405004001E4900C0E
:100CDC00CA9312089F743A12089FD20B750904022A
:020CEC000AF00C
:10023900E9D2E7C933E833F892D5EDD2E7CD33EC0B
:0702490033FC5002B2D52284
:10025000EC30E7100FBF000C0EBE00080DBD00040F
:100260000BEB6014A2D5EB13FCED92E7FD2274FFBB
:10027000FCFDFEFF22E480F8A2D574FF13FC7D8014
:03028000E480EF28
:10028300F920E73624F950037907E4F42402FBE567
:1002930082158270021583DBF6E024FB501BE960B4
:1002A30014E4F0E582158270021583E004F0B40AC9
:0D02B30008E4F0D9EE7401F00A22C2D52251
:1002C000ED33EC3392D5FA602AB4FF33EDC2E77B0D
:1002D000FF60067A0279E5E4227A0279EE20D504FD
:1002E0007A0279E9224E614E002B494E46002D4993
:1002F0004E4600E47A08F0A3DAFC7B00740722C0C3
:1003000083C082ECC0E0EDC0E0EEC0E0EFC0E0EA08
:1003100075F010A4CAABF075F04DA42BFBE435F0DA
:10032000FCEA2410FAEB34C5FBEC34D9FCEDC2E74F
:10033000FF75F056A4F42411C5F0F434C58FF0A471
:100340002AE5F03BE43CF020E7141204EDD0E0FF96
:10035000D0E0FED0E0FDD0E0FC1201278014F404D0
:100360001204EDD0E0FFD0E0FED0E0FDD0E0FC12C2
:10037000001ED082D083E0FAEDD2E7CD33EC3324F7
:1003800082FBE4C3CF33CFCE33CECD33CD33DBF3DB
:100390007B0775F00A846004F0A31B0AE5F0F0A364
:1003A0008FF0740AA4FFACF08EF0740AA42CFEAC9B
:1003B000F050010C8DF0740AA42CFDE435F0F0A38C
:0503C000DBDE740722E2
:1003C50002026EE86480F8E933E83360110460F0F6
:1003D500ED33EC337009E8FCE9FDEAFEEBFF22049E
:1003E50060DED3EB9FEA9EE99DE8C2E78CF0C2F799
:1003F50095F0400CE8CCF8E9CDF9EACEFAEBCFFB65
:1004050012023985D0F05804700320D5B3E8047082
:10041500075002B2D502027892D5EC0460F7E4CC1D
:10042500C0E0C398F8603B94186008400DD0E0FB2D
:10043500020250E4FBFAC9FC8028E830E406E4C96E
:10044500FBE4CAFCE830E305E4C9CACBFCE8540781
:100455006010F8C3E913F9EA13FAEB13FBEC13FC8C
:10046500D8F130F52FC3E49CFCEF9BFFEE9AFEED2F
:1004750099FDD0E0FBEF4E4D4C701222DB030202DA
:1004850075EC2CFCEF33FFEE33FEED33FDED30E77D
:10049500EB020250EF2BFFEE3AFEED39FDD0E0FB0B
:1004A50050130BBB0003020278ED13FDEE13FEEFB4
:0804B50013FFEC13FC020250DE
:1004BD003F8000004120000042C80000447A000047
:1004CD00461C400047C35000497424004B189680C9
:1004DD004CBEBC205A0E1BCA6753C21C749DC5AEC0
:1004ED00FB60065407601C232312051BEB54386078
:1004FD000912050712051612001EECF8EDF9EEFAB9
:10050D00EFCB22EB12051680F1543803241C900416
:10051D00BDFE93FC0EEE93FD0EEE930ECE93FF22D9
:030000000216D90C
:0C16D900787FE4F6D8FD7581220217200E
:10052D00E709F608DFFA8046E709F208DFFA803EB0
:10053D0088828C83E709F0A3DFFA8032E309F6089D
:10054D00DFFA8078E309F208DFFA807088828C8305
:10055D00E309F0A3DFFA806489828A83E0A3F608B9
:10056D00DFFA805889828A83E0A3F208DFFA804C93
:10057D0080D280FA80C680D4806980F2803380106A
:10058D0080A680EA809A80A880DA80E280CA8033D3
:10059D0089828A83ECFAE493A3C8C582C8CCC5834B
:1005AD00CCF0A3C8C582C8CCC583CCDFE9DEE7801B
:1005BD000D89828A83E493A3F608DFF9ECFAA9F09A
:1005CD00EDFB2289828A83ECFAE0A3C8C582C8CCF0
:1005DD00C583CCF0A3C8C582C8CCC583CCDFEADE09
:1005ED00E880DB89828A83E493A3F208DFF980CC6B
:1005FD0088F0EF60010E4E60C388F0ED2402B40464
:10060D000050B9F582EB2402B4040050AF2323450A
:06061D00822390057D73AD
:10062300BB010689828A83E0225002E722BBFE02D5
:09063300E32289828A83E4932208
:10063C00BB010CE58229F582E5833AF583E0225073
:10064C0006E92582F8E622BBFE06E92582F8E222BD
:0D065C00E58229F582E5833AF583E49322D7
:10066900BB010689828A83F0225002F722BBFE0170
:02067900F3226A
:10067B00F8BB010DE58229F582E5833AF583E8F0B5
:10068B00225006E92582C8F622BBFE05E92582C861
:02069B00F22249
:10069D00EF8DF0A4A8F0CF8CF0A428CE8DF0A42E71
:0206AD00FE222B
:1006AF00C2D5EC30E709B2D5E4C39DFDE49CFCEE66
:1006BF0030E715B2D5E4C39FFFE49EFE120816C3C0
:1006CF00E49DFDE49CFC800312081630D507C3E4BB
:0606DF009FFFE49EFE22D5
:1006E500C5F0F8A3E028F0C5F0F8E58215827002A0
:0606F5001583E038F0223D
:1006FB00A3F8E0C5F025F0F0E582158270021583B2
:06070B00E0C838F0E8220E
:10071100BB0110E58229F582E5833AF583E0F5F026
:10072100A3E0225009E92582F886F008E622BBFE03
:100731000AE92582F8E2F5F008E222E5832AF58349
:08074100E993F5F0A3E993220E
:10074900F8BB0111E58229F582E5833AF583E8F0E2
:10075900E5F0A3F0225009E92582C8F608A6F0229F
:0D076900BBFE09E92582C8F2E5F008F22286
:0E077600C3E49FFFE49EFEE49DFDE49CFC2294
:10078400E86010ECA2E713FCED13FDEE13FEEF138B
:04079400FFD8F02278
:0C079800A42582F582E5F03583F583226C
:1007A400F8E0FBA3A3E0F925F0F0E58215827002DE
:0707B4001583E0FA38F02282
:0907BB00EBF0A3EAF0A3E9F0223F
:1007C400D083D082F8E4937012740193700DA3A3C4
:1007D40093F8740193F5828883E4737402936860D8
:0607E400EFA3A3A380DFD8
:101BA600EFB40A07740D121BB1740A309811A89984
:101BB600B8130CC2983098FDA899C298B811F6309F
:071BC60099FDC299F5992277
:1007EA00EF4E6012EF60010EEDBB010B89828A8326
:1007FA00F0A3DFFCDEFA2289F05007F709DFFCA933
:0C080A00F022BBFEFCF309DFFCA9F02289
:1016E500021D6BE493A3F8E493A34003F68001F293
:1016F50008DFF48029E493A3F85407240CC8C33306
:10170500C4540F4420C8834004F456800146F6DFD4
:10171500E4800B0102040810204080901B7BE47ECE
:10172500019360BCA3FF543F30E509541FFEE493C9
:10173500A360010ECF54C025E060A840B8E493A390
:10174500FAE493A3F8E493A3C8C582C8CAC583CABB
:10175500F0A3C8C582C8CAC583CADFE9DEE780BE73
:011BA500003F
:10081600BC000BBE0029EF8DF084FFADF022E4CCC6
:10082600F875F008EF2FFFEE33FEEC33FCEE9DEC8F
:10083600984005FCEE9DFE0FD5F0E9E4CEFD22EDD5
:10084600F8F5F0EE8420D21CFEADF075F008EF2F1F
:10085600FFED33FD4007985006D5F0F222C398FD10
:050866000FD5F0EA22AD
:00000001FF
